:1000000050C0DBC369C068C067C066C065C064C05B
:1000100063C062C061C060C05FC05EC05DC05CC0E4
:100020005BC05AC059C058C057C056C055C054C014
:1000300053C052C0040309041203420072002E0090
:100040004D0069007300680061001E0355005300F5
:10005000420054006800650072006D006F006D0082
:10006000650074006500720012011001FF000008B5
:10007000D2FFAA01141501020001090212000101B8
:100080000080140904000000000000000600FF09C1
:1000900001A101150026FF00751695010900B202A5
:1000A00001C011241FBECFEFD2E0DEBFCDBF11E0F3
:1000B000A0E0B1E0E2E7FAE002C005900D92A230C4
:1000C000B107D9F711E0A2E0B1E001C01D92AE3353
:1000D000B107E1F70AD1CBC493CFE9E6F0E0808124
:1000E00082608083E89A0895FC0180818076803464
:1000F00059F48181823041F482E091E090932301B0
:100100008093220180E1089580E008951F939091EB
:100110002401935097FD90C02091210180912001EE
:100120008D3209F087C0983009F084C0ECE0F0E02F
:10013000E21BF109E85DFE4F83EC809312018AE532
:1001400080930001109210019081892F807679F0C0
:10015000803409F065C08181823009F061C082E09D
:1001600091E0909323018093220120E15AC0928173
:1001700010921B018181882321F410921C0122E03E
:1001800048C0853019F49093250142C0863089F526
:100190008381813019F488E690E016C0823019F42A
:1001A0008AE790E011C08330F9F48281882341F41A
:1001B00084E390E0909323018093220124E015C012
:1001C000813041F488E390E09093230180932201F1
:1001D00022E10BC0823041F48AE490E09093230145
:1001E000809322012EE101C020E080E48093100181
:1001F00018C0883021F421E087E291E00CC08930FA
:1002000019F49093270104C08A3011F421E001C051
:1002100020E08BE191E0909323018093220101C0C3
:1002200020E08781882321F48681821708F4282F13
:1002300020930101109224018091000184FF49C0A4
:10024000809101018F3F09F444C0182F893008F0D4
:1002500018E0811B809301018091120198E88927A1
:1002600080931201112341F1209122013091230149
:100270008091100186FF0DC0A3E1B1E080E090E025
:10028000F901E80FF91FE491ED9301961817C1F7F2
:1002900008C0912FD901E3E1F1E08D918193915054
:1002A000E1F71150812F90E01F5F0196820F931F9D
:1002B000909323018093220183E191E0612F79D211
:1002C000612F6C5F6C3019F08FEF809301016093A8
:1002D000000194E189B18C7031F49150D9F71092FA
:1002E000250110921F011F910895CF93DF938091F4
:1002F0006900826080936900E89A54985C9884EC65
:1003000099E02CE231E0F9013197F1F70197D9F743
:10031000549A5C9A7894CCE2D1E0F8DE82E091E0E5
:1003200060E018D188E893E1FE013197F1F7019779
:10033000D9F782E091E060E00DD188E893E1FE0119
:100340003197F1F70197D9F7E1DEE7CF9BB1209123
:10035000110141E050E0BA0102C0660F771F2A95F3
:10036000E2F79B01209529232BB99AB12091110125
:10037000BA0102C0660F771F2A95E2F7962B9AB949
:1003800094E09A95F1F7882361F09AB18091110178
:1003900002C0440F551F8A95E2F7842F8095892368
:1003A0008AB980EF8A95F1F73AB12091110181E085
:1003B00090E002C0880F991F2A95E2F78095832369
:1003C0008AB908954BB18091110121E030E0B90163
:1003D00002C0660F771F8A95E2F7CB0180958423D0
:1003E0008BB94AB180911101B90102C0660F771F24
:1003F0008A95E2F7462B4AB984E08A95F1F79AB1DB
:100400008091110102C0220F331F8A95E2F72095D7
:1004100029232AB988E38A95F1F789B1209111013E
:1004200094EB9A95F1F790E002C0959587952A95FF
:10043000E2F7817008956ADE08950F931F93082FE5
:1004400018E005C0802F817081DF06955FDE1150B6
:10045000C8F71F910F910895FF920F931F9380EF9C
:10046000ECDFFF240CC0AEDF182FACDF812F6EDF76
:100470000F5F0830C1F7F39488E0F81611F000E040
:10048000F2CF80E49CE92CE231E0F9013197F1F7F9
:100490000197D9F71F910F91FF9008950F931F9324
:1004A00008E010E009C08EDF912F9695182F179560
:1004B00011271795192B2ADE0150A8F7812F1F91BC
:1004C0000F910895EF92FF920F931F932BB180919C
:1004D000110101E010E0A80102C0440F551F8A95E8
:1004E000E2F7CA01809582238BB92AB1809111016C
:1004F000A80102C0440F551F8A95E2F7242B2AB9A0
:1005000005DE80EA95E00197F1F700DE2AB18091DF
:100510001101A80102C0440F551F8A95E2F7CA01D4
:10052000809582238AB980EF8A95F1F7E9B0F0903F
:1005300011018CEE94E00197F1F7E8DD02C0000FA5
:10054000111FFA94E2F78E2D80231F910F91FF90D7
:10055000EF900895AF92BF92CF92DF92EF92FF9209
:100560000F931F93DF93CF93CDB7DEB728970FB6C6
:10057000F894DEBF0FBECDBF5C0160931101A2DF16
:100580008CEC5BDF84E459DF01C0C0DD1BDF882316
:10059000E1F398DFBBDD8CEC50DF8EEB4EDF7EDFCE
:1005A000F82EB4DD7BDF082FB1DD8CDFAFDDEF2C63
:1005B000E2946FE0E622802F90E08770907054E024
:1005C000880F991F5A95E1F7E82A8F2D90E08F70D8
:1005D00090709C01220F331F220F331F280F391FE9
:1005E000D22EC32E93DD0C3F40F08FE78E19E82EFC
:1005F0008DE2D50118968C930BC0FF2031F40023B7
:1006000021F480E2F501808303C08BE2D5018C9355
:10061000FE01319688E0DF011D928A95E9F78E2D63
:100620006AE0F8D1805DF50181838E2D6AE0F2D118
:10063000905D92838EE283838D2D9C2D6AE070E025
:10064000F6D1605D64838D2D9C2D6AE070E0EFD162
:10065000805D85835BDD36DF80EFEFDE57DD88E090
:10066000C82ED12CCC0EDD1E1EC0ACDE082FAADE9B
:10067000802F6CDE10E00E2C02C0000F111F0A94B8
:10068000E2F7005DD6018C91802B8C930894E11CDD
:10069000F11CB8E0EB16F10441F70894C108D10849
:1006A000CC16DD0619F0EE24FF24DFCF2981922F2E
:1006B00092959F709A3010F087E301C080E3890F14
:1006C000F5018683922F9F709A3010F087E301C066
:1006D00080E3890FD50117968C932A81922F9295EA
:1006E0009F709A3010F087E301C080E3890FF50115
:1006F0008087922F9F709A3010F087E301C080E3CB
:10070000890FD50119968C932B81922F92959F700A
:100710009A3010F087E301C080E3890FF5018287EA
:10072000922F9F709A3010F087E301C080E3890F09
:10073000D5011B968C932C81922F92959F709A30A5
:1007400010F087E301C080E3890FF5018487922FC1
:100750009F709A3010F087E301C080E3890FD501C4
:100760001D968C93D3DC28960FB6F894DEBF0FBE8F
:10077000CDBFCF91DF911F910F91FF90EF90DF9050
:10078000CF90BF90AF900895A82FB92F80E090E050
:1007900041E050EA609530E009C02D91822797959D
:1007A000879510F084279527305EC8F36F5FA8F314
:1007B0000895EADF8D939D930895CF93CFB7CF939C
:1007C000C3954B9BE9F74B9B09C04B9B07C04B9BC9
:1007D00005C04B9B03C04B9B01C0A1C0DF93C091E0
:1007E0002101DD27C85DDE4F4B9B02C0DF91EBCFBF
:1007F0002F930F931F9309B12FEF03FB20F94F9312
:100800003F9319B14FEF012703FB21F93BE031C0C2
:100810004E7F012F19B1216028C0102F4D7F22601B
:10082000000009B129C04B7F2460012F000019B1DD
:100830002BC019B1477F28602AC04F7E09B12061C3
:100840002CC04F7D19B120622FC04F7B09B12064AD
:1008500032C0422709B149934FEF0000102713FB24
:1008600020F919B11C70C9F1297F91F2012703FB0E
:1008700021F909B1237F89F2315058F1102713FB78
:1008800022F919B1277E79F2012703FB23F92F7C86
:1008900081F209B1102713FB24F92F7971F200C0FE
:1008A00019B1012703FB25F92F7359F200C009B1D3
:1008B000102713FB26F9223040F200C019B101279E
:1008C00003FB27F9243028F64F77206819B1000080
:1008D000F9CF11E01CBB002717C03B503195C31B5B
:1008E000D04011E01CBB0881033CE9F00B34D9F087
:1008F00020911F011981110F1213EDCF093641F11B
:100900000D3211F0013E39F7009326013F914F91CE
:100910001F910F912F91DF91CCB3C0FD51CFCF919B
:10092000CFBFCF91189520912601222379F3109102
:100930002401112311F5343012F130932401209356
:100940002001109121013BE0311B3093210117C0A0
:100950000091240101308CF40AE53091000134FD4E
:1009600010C000930001C2E1D1E00FC02795A8F4A8
:100970005150A9F4220F0000F9CF4AE503C042ED1F
:1009800001C0432FC4E1D0E032E01AB11C605B9A91
:100990001AB90BB120E41CE05F93012756E00BB9B4
:1009A000279520F4515021F4220FF9CF012756E06A
:1009B00000003B5A0BB9D0F2279528F4515029F486
:1009C000220F0000F9CF012756E027950BB920F43C
:1009D000515021F4220FF9CF012756E029913323FA
:1009E0000BB921F6037F10912501110FC651D0409C
:1009F0000BB911F010931F0111E01CBB08601AB174
:100A0000137F402F437F5F9100C000C00BB91AB91C
:100A10004BB97CCF87FB082E062687FD819567FDA5
:100A2000619519D00EF4919507FC81950895AA1B44
:100A3000BB1B51E107C0AA1FBB1FA617B70710F0C9
:100A4000A61BB70B881F991F5A95A9F780959095FB
:100A5000BC01CD010895991B79E004C0991F961738
:100A600008F0961B881F7A95C9F780950895F89429
:020A7000FFCFB6
:020A72005AFF29
:00000001FF
